:1001AB003F065B4F666D7D077F6F777C395E79719C
:1001BB000040761E7038375C733E783D6750376E63
:1001CB00BF86DBCFE6EDFD87FFEF4601020408108B
:0301DB0020408041
:1001DE000813000102030405060C080B00000000C2
:0C01EE0000000000C1000108000109FF32
:10013800EF24FC601114601714601D146023240759
:10014800702753A01F22E5A0541F4480F5A022E584
:10015800A0541F44A0F5A022E5A0541F44C0F5A058
:0A01680022E5A0541F44E0F5A02298
:10017200AE077580FF7F07120138E4FF120138EEE7
:100182009001D693F5807F06120138E4FF12013800
:1001920074AB2DF58274013CF583E493F4F5807F12
:0901A20007120138E4FF020138E4
:1000FD00ED4C600F7401A807088002C333D8FC4291
:10010D0008800E7401A807088002C333D8FCF4528E
:10011D0008E50865096013E508F4F580E5A0541FAE
:0A012D004480F5A053A01F850809C7
:0101370022A5
:0D022300007F047ECD7DBBDDFEDEFCDFFA3A
:0102300022AB
:1001FB00538E7F5389F0758A18758CFCC28DD2A9EA
:05020B00D2AFD28C22ED
:10021000E51C451B700C751B00751C0175120175E2
:030220000B0122AD
:0B0231001201FB12021012022380F8E1
:03000B0002009A56
:10009A00C0E0C083C082C0D075D000C000C004C018
:1000AA0005C006C007051CE51C7002051BFFAE1B38
:1000BA00BE0109BFF406751B00751C00050AE50A96
:1000CA00B40803750A007413250AF8E6FD7C00AF2C
:1000DA000A120172740B250AF8E6FDAF0A1200FD36
:1000EA00D007D006D005D004D000D0D0D082D0839B
:0300FA00D0E03221
:0300000002000EED
:0C000E00787FE4F6D8FD758120020055D3
:10001A00020231E493A3F8E493A34003F68001F2C9
:10002A0008DFF48029E493A3F85407240CC8C333E7
:10003A00C4540F4420C8834004F456800146F6DFB6
:10004A00E4800B01020408102040809001DEE47E67
:10005A00019360BCA3FF543F30E509541FFEE493AB
:10006A00A360010ECF54C025E060A840B8E493A372
:10007A00FAE493A3F8E493A3C8C582C8CAC583CA9D
:10008A00F0A3C8C582C8CAC583CADFE9DEE780BE55
:0101FA000004
:00000001FF
