:10016A0041000AFE490001FFFEFDFBF7EFDFBF7FFA
:10012600EF1FAC0670011E4C600E7508027509EFD4
:08013600D509FDD508FA80E8A7
:01013E00229E
:1000F300EF24FB601314601914601F24037023E5BD
:10010300A0541F4480F5A022E5A0541F44A0F5A0ED
:1001130022E5A0541F44C0F5A022E5A0541F44E0EB
:03012300F5A02222
:10013F00E4FF20B0010F20B1027F0220B2027F0343
:05014F0020B3027F0453
:010154002288
:10015500AE077F041200F374012EF582E43400F536
:0501650083E0F580229B
:10008F0012013F90000CEFF0A3E06FFE5FFD9000B8
:10009F000BF0EFF45E900000F090000CE0A3F0ED99
:1000AF0024FE600E146012146013240370117F017C
:1000BF0080027F021201558006D2008002C20030FA
:1000CF0000BE7F041200F390000AE0F5807FF47EFB
:1000DF0001120126E0FF780108800123D8FD90006E
:0400EF000AF0809CF7
:03000000020003F8
:0C000300787FE4F6D8FD75812002004AE9
:10000F0002008FE493A3F8E493A34003F68001F278
:10001F0008DFF48029E493A3F85407240CC8C333F2
:10002F00C4540F4420C8834004F456800146F6DFC1
:10003F00E4800B010204081020408090016AE47EE6
:10004F00019360BCA3FF543F30E509541FFEE493B6
:10005F00A360010ECF54C025E060A840B8E493A37D
:10006F00FAE493A3F8E493A3C8C582C8CAC583CAA8
:10007F00F0A3C8C582C8CAC583CADFE9DEE780BE60
:01017A000084
:00000001FF
